:100000000C945A000C9477000C9477000C947700B1
:100010000C9477000C9477000C9477000C94770084
:100020000C9477000C9477000C947D010C9477006D
:100030000C9477000C9477000C9477000C94770064
:100040000C9477000C9477000C9477000C94770054
:100050000C947700BA00CE00E200F6001E010A01FF
:10006000A900A900A900A900A900A900A900A90048
:10007000A900A9002C01310136013B0147014001D3
:10008000A900A900A900A900A900A900A900A90028
:10009000A900A900500155015A015F016B016401DB
:1000A000A900A900A900A900A900A900A900A90008
:1000B000A900740111241FBECFE5D8E0DEBFCDBF7B
:1000C00010E0A0E6B0E0E4EAFFE002C005900D9287
:1000D000A236B107D9F710E0A2E6B0E001C01D9248
:1000E000A736B107E1F70E9479000C94D0070C9471
:1000F00000000E9450030E9402060E94FA0584E458
:1001000062E00E94050284E466E00E94050284E445
:1001100064E00E94050284E465E00E94050284E434
:1001200066E00E94050283E464E00E94050283E425
:1001300065E00E94050283E466E00E94050283E414
:1001400067E00E94050284E467E00E940502CFEFA9
:10015000D1E08FEF0E94FD0590E04197803391053B
:10016000C0F7865D9F4FFC01EE0FFF1F0590F491D5
:10017000E02D099484E464E00E941402882339F09D
:1001800084E464E00E941402813021F402C0C0E0E3
:1001900001C0CD2F8C2F0E94FD05DBCF84E465E0EC
:1001A0000E941402882339F084E465E00E9414025E
:1001B000813021F402C0C0E001C0CD2F8C2F0E94FD
:1001C000FD05C7CF84E466E00E941402882339F05D
:1001D00084E466E00E941402813021F402C0C0E091
:1001E00001C0CD2F8C2F0E94FD05B3CF84E467E0C2
:1001F0000E941402882339F084E467E00E9414020C
:10020000813021F402C0C0E001C0CD2F8C2F0E94AC
:10021000FD059FCF84E462E00E941402882339F038
:1002200084E462E00E941402813021F402C0C0E044
:1002300001C0CD2F8C2F0E94FD058BCF80916600D1
:10024000882319F0813021F402C0C6E501C0C5E55C
:100250008C2F0E94FD057DCF84E464E00E9409029A
:1002600078CF84E465E00E94090273CF84E466E0FD
:100270000E9409026ECF84E467E00E94090269CF00
:100280000E94020684E462E00E94090262CF84EACE
:1002900091E00E9417020E943B03D093660059CF61
:1002A00084E464E00E940D0254CF84E465E00E947F
:1002B0000D024FCF84E466E00E940D024ACF84E431
:1002C00067E00E940D0245CF0E94180684E462E0B8
:1002D0000E940D023ECF84EA91E00E94A9020E9492
:1002E0003B031092660035CF8FEF0E94FD0590E032
:1002F00090936100809360002CCF1F920F920FB6F5
:100300000F9211242F933F934F935F936F937F939B
:100310008F939F93AF93BF93EF93FF93809163006D
:100320008F5F80936300809163008A3008F45CC023
:10033000109263000E945603BC0180E090E00E948E
:10034000DF0620E030E040E85EE30E946D070E9497
:10035000B306DC01CB01909365008093640020918B
:1003600060003091610080916400909165002F5F82
:100370003F4F8217930740F084E462E00E94090235
:1003800081E08093620030C0209160003091610074
:100390008091640090916500215030402817390702
:1003A00038F084E462E00E940D02109262001CC0EA
:1003B000209160003091610080916400909165000F
:1003C0002817390789F480916200813029F484E488
:1003D00062E00E94090208C080916200882321F433
:1003E00084E462E00E940D02FF91EF91BF91AF9112
:1003F0009F918F917F916F915F914F913F912F913D
:100400000F900FBE0F901F90189541E00E9462035D
:10041000089541E00E94E503089540E00E94E5034D
:1004200008950E94C00408950E94680408950F93DF
:100430001F93CF93DF93BC0180E090E00E94DF0622
:1004400023E333E343E35FE30E944B06462F572F3A
:10045000682F792FCB01BA010E94B306DC01CB01D2
:10046000EC01009709F470C000E010E083E464E060
:1004700040E00E94E50383E465E040E00E94E5037C
:1004800083E466E040E00E94E50383E467E041E046
:100490000E94E5038FE99FE00197F1F700C000009B
:1004A00083E464E040E00E94E50383E465E040E02B
:1004B0000E94E50383E466E041E00E94E50383E4F3
:1004C00067E040E00E94E5038FE99FE00197F1F7C4
:1004D00000C0000083E464E040E00E94E50383E4A0
:1004E00065E041E00E94E50383E466E040E00E94AD
:1004F000E50383E467E040E00E94E5038FE99FE0C5
:100500000197F1F700C0000083E464E041E00E943D
:10051000E50383E465E040E00E94E50383E466E0F0
:1005200040E00E94E50383E467E040E00E94E503C9
:100530008FE99FE00197F1F700C000000F5F1F4FA8
:100540000C171D0709F092CFDF91CF911F910F91EA
:1005500008950F931F93CF93DF93BC0180E090E049
:100560000E94DF0623E333E343E35FE30E944B068D
:10057000462F572F682F792FCB01BA010E94B3065F
:10058000DC01CB01EC01009709F470C000E010E041
:1005900083E464E041E00E94E50383E465E040E039
:1005A0000E94E50383E466E040E00E94E50383E403
:1005B00067E040E00E94E5038FE99FE00197F1F7D3
:1005C00000C0000083E464E040E00E94E50383E4AF
:1005D00065E041E00E94E50383E466E040E00E94BC
:1005E000E50383E467E040E00E94E5038FE99FE0D4
:1005F0000197F1F700C0000083E464E040E00E944E
:10060000E50383E465E040E00E94E50383E466E0FF
:1006100041E00E94E50383E467E040E00E94E503D7
:100620008FE99FE00197F1F700C0000083E464E0E8
:1006300040E00E94E50383E465E040E00E94E503BA
:1006400083E466E040E00E94E50383E467E041E084
:100650000E94E5038FE99FE00197F1F700C00000D9
:100660000F5F1F4F0C171D0709F092CFDF91CF913D
:100670001F910F91089583E464E040E00E94E50338
:1006800083E465E040E00E94E50383E466E040E047
:100690000E94E50383E467E040E00E94E5030895DB
:1006A0003E9A3F9A379A329A319A0895369A349BF5
:1006B000FECF349A84B190E045B1342F20E0822BF4
:1006C000932B0895823451F1833420F4813409F05E
:1006D0007BC007C0833409F43EC0843409F074C081
:1006E00057C0413069F42AB381E090E0AC0102C008
:1006F000440F551F6A95E2F7BA01622B6ABB089551
:100700002AB381E090E0AC0102C0440F551F6A9506
:10071000E2F7BA01609562236ABB0895413069F43B
:1007200027B381E090E0AC0102C0440F551F6A95E9
:10073000E2F7BA01622B67BB089527B381E090E02E
:10074000AC0102C0440F551F6A95E2F7BA016095EB
:10075000622367BB0895413069F424B381E090E0DF
:10076000AC0102C0440F551F6A95E2F7BA01622B33
:1007700064BB089524B381E090E0AC0102C0440F53
:10078000551F6A95E2F7BA016095622364BB08952C
:10079000413069F421B381E090E0AC0102C0440F24
:1007A000551F6A95E2F7BA01622B61BB089521B328
:1007B00081E090E0AC0102C0440F551F6A95E2F75A
:1007C000BA016095622361BB0895823451F183348C
:1007D00020F4813409F07BC007C0833409F43EC0A3
:1007E000843409F074C057C0413069F42BB381E000
:1007F00090E0AC0102C0440F551F6A95E2F7BA01C0
:10080000622B6BBB08952BB381E090E0AC0102C07A
:10081000440F551F6A95E2F7BA01609562236BBBDE
:100820000895413069F428B381E090E0AC0102C042
:10083000440F551F6A95E2F7BA01622B68BB089511
:1008400028B381E090E0AC0102C0440F551F6A95C7
:10085000E2F7BA016095622368BB0895413069F4FC
:1008600025B381E090E0AC0102C0440F551F6A95AA
:10087000E2F7BA01622B65BB089525B381E090E0F1
:10088000AC0102C0440F551F6A95E2F7BA016095AA
:10089000622365BB0895413069F422B381E090E0A2
:1008A000AC0102C0440F551F6A95E2F7BA01622BF2
:1008B00062BB089522B381E090E0AC0102C0440F16
:1008C000551F6A95E2F7BA016095622362BB0895ED
:1008D0008234F1F0833420F4813409F04FC006C033
:1008E000833441F1843409F049C036C029B381E032
:1008F00090E0062E02C0880F991F0A94E2F730E0BC
:100900008223932302C0959587956A95E2F708950F
:1009100026B381E090E0062E02C0880F991F0A944A
:10092000E2F730E08223932302C0959587956A957C
:10093000E2F7089523B381E090E0062E02C0880F0D
:10094000991F0A94E2F730E08223932302C0959521
:1009500087956A95E2F7089520B381E090E0062E2E
:1009600002C0880F991F0A94E2F730E08223932394
:1009700002C0959587956A95E2F7089580E00895FD
:100980008234B9F0833418F48134C9F505C0833456
:10099000E9F08434A1F527C02BB381E090E0AC01ED
:1009A00002C0440F551F6A95E2F7BA0162276BBB7C
:1009B000089528B381E090E0AC0102C0440F551FB8
:1009C0006A95E2F7BA01622768BB089525B381E012
:1009D00090E0AC0102C0440F551F6A95E2F7BA01DE
:1009E000622765BB089522B381E090E0AC0102C0AC
:1009F000440F551F6A95E2F7BA01622762BB08955A
:100A0000823461F0833418F4813469F405C083348E
:100A100039F0843441F406C06BBB089568BB089577
:100A200065BB089562BB0895823479F0833418F46D
:100A30008134C9F405C0833469F08434A1F40FC053
:100A40008BB3607F682B6BBB089588B3607F682B86
:100A500068BB089585B3607F682B65BB089582B33A
:100A6000607F682B62BB0895823471F0833418F480
:100A70008134A9F405C0833459F0843481F40CC066
:100A80008BB38F708BBB089588B38F7088BB08952C
:100A900085B38F7085BB089582B38F7082BB089534
:100AA000823491F1833420F4813409F09BC007C073
:100AB000833409F44EC0843409F094C06FC04130CF
:100AC000A9F480B78B7F80BF2AB381E090E0AC01AE
:100AD00002C0440F551F6A95E2F7BA01842F809532
:100AE00082238ABB8BB3682B6BBB08952BB381E049
:100AF00090E0AC0102C0440F551F6A95E2F7BA01BD
:100B0000609562236BBB08954130A9F480B78B7F59
:100B100080BF27B381E090E0AC0102C0440F551FB5
:100B20006A95E2F7BA01842F8095822387BB88B348
:100B3000682B68BB089528B381E090E0AC0102C047
:100B4000440F551F6A95E2F7BA016095622368BBAE
:100B500008954130A9F480B78B7F80BF24B381E032
:100B600090E0AC0102C0440F551F6A95E2F7BA014C
:100B7000842F8095822384BB85B3682B65BB089541
:100B800025B381E090E0AC0102C0440F551F6A9587
:100B9000E2F7BA016095622365BB08954130A9F47C
:100BA00080B78B7F80BF21B381E090E0AC0102C0B1
:100BB000440F551F6A95E2F7BA01842F809582236E
:100BC00081BB82B3682B62BB089522B381E090E0C1
:100BD000AC0102C0440F551F6A95E2F7BA01609557
:100BE000622362BB089587B3806B87BB8DB181653B
:100BF0008DB90895BE9A6E9A08958FB9779BFECFEE
:100C00008FB108958EE48CBF83B7886083BF83B7AC
:100C10008F7B83BF83B7816083BF83B78D7F83BFA3
:100C200083B7846083BF789489B7826089BF089551
:100C300083B78E7F83BF83B78D7F83BF83B78B7F5F
:100C400083BF089580E88CBF83B7806483BF83B778
:100C5000886083BF789483B7806283BF89B78160DF
:100C600089BF83B7816083BF83B78D7F83BF83B71D
:100C7000846083BF089520E030E048EC52E40E9495
:100C80004B0620E030E040E853E40E946D070E94EC
:100C9000B3066CBF08950CD0E6C0DED040F0D5D0CE
:100CA00030F021F45F3F19F0C7C0511110C1CAC024
:100CB000EBD098F39923C9F35523B1F3951B550B4A
:100CC000BB27AA2762177307840738F09F5F5F4F1F
:100CD000220F331F441FAA1FA9F333D00E2E3AF060
:100CE000E0E830D091505040E695001CCAF729D07A
:100CF000FE2F27D0660F771F881FBB1F26173707C9
:100D00004807AB07B0E809F0BB0B802DBF01FF27F8
:100D100093585F4F2AF09E3F510568F08DC0D7C0B1
:100D20005F3FECF3983EDCF3869577956795B79532
:100D3000F7959F5FC9F7880F911D9695879597F94D
:100D40000895E1E0660F771F881FBB1F62177307C6
:100D50008407BA0720F0621B730B840BBA0BEE1FDB
:100D600088F7E095089598D088F09F5790F0B92FB4
:100D70009927B751A0F0D1F0660F771F881F991FF0
:100D80001AF0BA95C9F712C0B13081F09FD0B1E026
:100D900008959CC0672F782F8827B85F39F0B93F36
:100DA000CCF3869577956795B395D9F73EF49095F2
:100DB0008095709561957F4F8F4F9F4F0895E89470
:100DC00009C097FB3EF490958095709561957F4F93
:100DD0008F4F9F4F9923A9F0F92F96E9BB27939541
:100DE000F695879577956795B795F111F8CFFAF451
:100DF000BB0F11F460FF1BC06F5F7F4F8F4F9F4F82
:100E000016C0882311F096E911C0772321F09EE8DF
:100E1000872F762F05C0662371F096E8862F70E045
:100E200060E02AF09A95660F771F881FDAF7880F1F
:100E30009695879597F9089597F99F6780E870E0F0
:100E400060E008959FEF80EC089500240A94161640
:100E5000170618060906089500240A9412161306A8
:100E6000140605060895092E0394000C11F4882336
:100E700052F0BB0F40F4BF2B11F460FF04C06F5F52
:100E80007F4F8F4F9F4F089557FD9058440F551F28
:100E900059F05F3F71F04795880F97FB991F61F0FC
:100EA0009F3F79F087950895121613061406551F73
:100EB000F2CF4695F1DF08C0161617061806991FDF
:100EC000F1CF86957105610508940895E894BB27D4
:100ED00066277727CB0197F908950BD0C4CFB5DFEC
:100EE00028F0BADF18F0952309F0A6CFABCF112474
:100EF000EECFCADFA0F3959FD1F3950F50E0551FB9
:100F0000629FF001729FBB27F00DB11D639FAA275E
:100F1000F00DB11DAA1F649F6627B00DA11D661FAD
:100F2000829F2227B00DA11D621F739FB00DA11DCE
:100F3000621F839FA00D611D221F749F3327A00D88
:100F4000611D231F849F600D211D822F762F6A2F24
:100F500011249F5750408AF0E1F088234AF0EE0FA9
:100F6000FF1FBB1F661F771F881F91505040A9F7B6
:100F70009E3F510570F060CFAACF5F3FECF3983EE3
:100F8000DCF3869577956795B795F795E7959F5F1D
:100F9000C1F7FE2B880F911D9695879597F90895B7
:040FA000F894FFCFF3
:020FA400180033
:00000001FF
