:100000000C942A000C9447000C9447000C94470071
:100010000C9447000C9447000C9447000C94470044
:100020000C9447000C9447000C947E070C944700F6
:100030000C9447000C94720D0C94990D0C9447008D
:100040000C9447000C9447000C9447000C94470014
:100050000C94470011241FBECFE5D8E0DEBFCDBF12
:1000600012E0A0E6B0E0E0E4FEE102C005900D92EF
:10007000A03AB107D9F712E0A0EAB2E001C01D92A0
:10008000AA3AB107E1F70E94D5010C941E0F0C9417
:1000900000004423A1F0FC013081FB0120813217D4
:1000A00081F4DC011196319680E004C02D9191918C
:1000B000291749F48F5F8417C9F781E0089581E01B
:1000C000089580E0089580E00895CF93C82F80912F
:1000D000A1029091A2022BE0883B920710F0C13060
:1000E00051F08091A1029091A20227E0803D9207F9
:1000F00038F0C23029F481E08093A0028FEF04C071
:100100000E945F088F3F19F3CF9108952F923F927D
:100110004F925F927F928F929F92AF92BF92CF92B7
:10012000DF92EF92FF920F931F93CF93DF93D82F1D
:10013000062FEE24FF2410E00F2EF2E72F2EF0E022
:100140003F2EF02D0F2EF3E17F2EF02D0F2EF5EA2E
:10015000AF2EF0E0BF2EF02D0F2EFEE94F2EF0E077
:100160005F2EF02D0F2EF9EACF2EF0E0DF2EF02DCE
:100170000F2EFAEB8F2EF0E09F2EF02D0E946F09CC
:10018000D53061F1D63030F4D33061F0D43009F09D
:100190005BC016C0D730E9F1D73068F1D93009F02B
:1001A00053C045C080E690E00E9460090F2EF1E345
:1001B000EF2EF02D0F2EF1E2FF2EF02D11E144C0B5
:1001C00089E690E00E9460090F2EF2E3EF2EF02DF9
:1001D0000F2EF2E2FF2EF02D12E136C0C1010E9477
:1001E00060090F2EF3E3EF2EF02D0F2EF3E2FF2E1A
:1001F000F02D172D29C088E790E00E9460090F2E8E
:10020000F4E3EF2EF02D0F2EF4E2FF2EF02D14E18B
:100210001BC08FE790E00E9460090F2EF5E3EF2EE0
:10022000F02D0F2EF5E2FF2EF02D15E10DC089E81F
:1002300090E00E9460090F2EF6E3EF2EF02D0F2EB6
:10024000F6E2FF2EF02D16E1812F0E94120D8FEFA6
:1002500090E7A2E081509040A040E1F700C000008C
:100260008FEF0E94120D813029F486E990E00E9400
:10027000600910C0853529F489E990E00E94600981
:1002800009C0863521F4C2010E94600903C0C5017E
:100290000E94600982E061E00E947309C6010E9429
:1002A0006009802F0E946500C82F8FEF90E7A2E0C1
:1002B00081509040A040E1F700C00000C13321F41C
:1002C0008F2D0E94120D20C0C23321F48E2D0E946A
:1002D000120D1AC0CF3F99F0C033B1F00E946F09E0
:1002E000C4010E9460098FEF94E3ACE0815090401C
:1002F000A040E1F700C00000C053C33028F0809157
:10030000A002882309F43ACFDF91CF911F910F917A
:10031000FF90EF90DF90CF90BF90AF909F908F9025
:100320007F905F904F903F902F9008950E94700DA6
:100330008093A3028134C1F51092A30280EE6FEF87
:100340000E94B0078FEF90E7A2E081509040A0405C
:10035000E1F700C0000081EE6FEF0E94B0078FEF61
:1003600090E7A2E081509040A040E1F700C000007B
:100370000E946F0980E061E00E94730986EC90E0C2
:100380000E94600982E061E00E94730984ED90E0C0
:100390000E9460098FEF99E6A8E181509040A0404B
:1003A000E1F700C00000FFCF0895CF93DF93CDB7F2
:1003B000DEB72D970FB6F894DEBF0FBECDBF198202
:1003C00083E460E00E94CE0983E461E00E94CE09EC
:1003D0000E9402090E9422080E94080D0E94710CCE
:1003E0000E94600D86E991E00E94C50D0E946A0D91
:1003F000789484E460E040E00E94E00984E461E0F5
:1004000041E00E94E0098EED90E00E9460092FEF2C
:1004100039E648E1215030404040E1F700C000009B
:100420000E946F0980EEBE016E5F7F4F0E949507AC
:1004300081EEBE016D5F7F4F0E9495078A818035F6
:1004400021F48B81803509F435C18CEE90E00E9457
:10045000600982E061E00E94730986EF90E00E94EB
:1004600060098FEF99E6A8E181509040A040E1F744
:1004700000C000000E946F0981E091E00E946009C5
:1004800082E061E00E94730981E191E00E946009CD
:100490008FEF888789878A878B878E01085F1F4F38
:1004A00078010F2EFCE0DF2EF02D0E945F088F3FB9
:1004B000E1F3D7018D937D010E943D092FEF32E5D5
:1004C00047E0215030404040E1F700C0000082E0AA
:1004D0006D2D0E9473098AE20E943D098FEF90E71B
:1004E000A2E081509040A040E1F700C00000D3940A
:1004F00090E1D916D1F682EE68850E94B0072FEF01
:1005000030E742E0215030404040E1F700C00000B9
:1005100083EE69850E94B0078FEF90E7A2E08150DB
:100520009040A040E1F700C0000084EE6A850E9480
:10053000B0072FEF30E742E0215030404040E1F774
:1005400000C0000085EE6B850E94B0078FEF90E73A
:10055000A2E081509040A040E1F700C0000080EE92
:1005600060E50E94B0072FEF30E742E021503040B5
:100570004040E1F700C000000E946F098EE191E069
:100580000E9460098FEF94E3ACE081509040A0405E
:10059000E1F700C000000E946F0989E291E00E942B
:1005A000600982E061E00E94730988E391E00E94A3
:1005B00060090F2EFCE0EF2EF02D0E945F088F3FA8
:1005C000E1F3D8018D938D010E943D092FEF32E5B3
:1005D00047E0215030404040E1F700C0000082E099
:1005E0006E2D0E9473098AE20E943D098FEF90E709
:1005F000A2E081509040A040E1F700C00000E394E9
:1006000090E1E916D1F686EE68850E94B0072FEFDB
:1006100030E742E0215030404040E1F700C00000A8
:1006200087EE69850E94B0078FEF90E7A2E08150C6
:100630009040A040E1F700C0000088EE6A850E946B
:10064000B0072FEF30E742E0215030404040E1F763
:1006500000C0000089EE6B850E94B0078FEF90E725
:10066000A2E081509040A040E1F700C0000081EE80
:1006700060E50E94B0072FEF30E742E021503040A4
:100680004040E1F700C000000E946F098EE191E058
:100690000E9460098FEF94E3ACE081509040A0404D
:1006A000E1F700C000000E946F098AEE60E00E943E
:1006B000B00706C08AEEBE016F5F7F4F0E949507AC
:1006C000DD24ABE9B1E0AC87BD870F2EF7EA2F2E12
:1006D000F1E03F2EF02D0F2EF4E58F2EF1E09F2E4E
:1006E000F02D8091A002813029F50E942D0D1092ED
:1006F000A2021092A1021092A0020E946F0984E44B
:1007000091E00E9460092FEF39E648E12150304026
:100710004040E1F700C00000DD2400E01FEF42E6AA
:1007200051E00F2EF7E64F2EF1E05F2EF02D642EF4
:10073000C52E04C0DD2089F3E7C1DD248981813025
:1007400091F50E946F0904E10E946F0980E060E06A
:100750000E947309C4010E94600982E061E00E9466
:100760007309862D9C2D0E94600982E066E00E943C
:100770007309802F0E94810982E069E00E94730959
:10078000C2010E9460098FEF99E6A8E18150904074
:10079000A040E1F700C000000150B1F619828AEED6
:1007A00060E00E94B0070E946F098FE691E00E940E
:1007B000600982E061E00E9473098DE791E00E9488
:1007C00060091F3F29F40E945F088F3FE1F3182F53
:1007D000812F8053823088F00E946F098EE891E06B
:1007E0000E9460092FEF39E648E121503040404037
:1007F000E1F700C000001FEF84C18FEF8887898771
:100800008A878B878C838D838E838F83103341F00F
:10081000113309F076C132E0D31609F0BAC074C1C1
:1008200041E0D41609F470C182E3D82ED01A0F2EFD
:10083000FCE0BF2EF02D7C2CAC84CD840E946F098F
:100840008A2D9C2D0E94600982E061E00E9473095C
:10085000C1010E9460098FEF91EEA4E081509040A9
:10086000A040E1F700C00000EE24FF246894E3F804
:10087000EC0EFD1E1B2D0E945F088F3FE1F3D70198
:100880008D937D010E943D092FEF32E547E0215015
:1008900030404040E1F700C0000082E0612F0E943C
:1008A00073098AE20E943D098FEF90E7A2E0815030
:1008B0009040A040E1F700C000001F5F1031D9F662
:1008C00082EEBE016C5F7F4F0E94950783EEBE01F2
:1008D0006B5F7F4F0E94950784EEBE016A5F7F4F7A
:1008E0000E94950785EEBE01695F7F4F0E949507C4
:1008F000CE010896BE016C5F7F4F44E00E94490024
:100900008130F1F40E946F0983EB91E00E9460094D
:1009100082E061E00E9473098BE991E00E94600926
:100920002FEF34E34CE0215030404040E1F700C06D
:1009300000000E94170D0E946F09DD24D394E4C0CB
:100940000F5F0E946F098EEB91E00E94600982E0C8
:1009500061E00E94730989EC91E00E9460098D2D8D
:100960000E943D098FEF99E6A8E181509040A04098
:10097000E1F700C000000E946F09DA94033008F428
:100980005DCFC72C8AEE61E00E94B00781E08983C9
:1009900099C282E3D82ED01A0F2EF5EDAF2EF1E0DA
:1009A000BF2EF02D0F2EFCE07F2EF02D0E946F0940
:1009B000C5010E94600982E061E00E94730980EE37
:1009C00091E00E9460092FEF31EE44E02150304069
:1009D0004040E1F700C00000EE24FF246894E3F8F3
:1009E000EC0EFD1E172D0E945F088F3FE1F3D7012B
:1009F0008D937D010E943D092FEF32E547E02150A4
:100A000030404040E1F700C0000082E0612F0E94CA
:100A100073098AE20E943D098FEF90E7A2E08150BE
:100A20009040A040E1F700C000001F5F1031D9F6F0
:100A300086EEBE016C5F7F4F0E94950787EEBE0178
:100A40006B5F7F4F0E94950788EEBE016A5F7F4F04
:100A50000E94950789EEBE01695F7F4F0E9495074E
:100A6000CE010896BE016C5F7F4F44E00E944900B2
:100A70008130F9F40E946F0983EB91E00E946009D4
:100A800082E061E00E94730985ED91E00E946009B7
:100A90002FEF34E34CE0215030404040E1F700C0FC
:100AA00000000E94170D0E946F09DD246894D1F8A0
:100AB0002BC00F5F0E946F098CEE91E00E946009CD
:100AC00082E061E00E94730989EC91E00E94600974
:100AD0008D2D0E943D098FEF99E6A8E1815090404D
:100AE000A040E1F700C000000E946F09DA940330D3
:100AF00008F45CCF8AEE61E00E94B00781E0898350
:100B0000E1C1DD2009F419CE01E00F2EFFE1EF2E47
:100B1000F2E0FF2EF02DD0C1053009F414C10630EB
:100B200070F4023009F486C0033018F40130A1F7E4
:100B30001BC0033009F4FBC0043071F7FEC008305D
:100B400009F4B8C0093030F4063009F402C10730A6
:100B500019F709C1093009F40CC10A30E9F68823F4
:100B600009F40DC108E0A8C10F2EF7EFAF2EF1E098
:100B7000BF2EF02D0F2EF7E06F2EF2E07F2EF02D1E
:100B80000F2EF4E14F2EF2E05F2EF02D8D2DD02EA2
:100B9000082F0E946F09C5010E94600982E061E090
:100BA0000E947309013021F4C3010E94600905C04D
:100BB000023019F4C2010E946009802F0E94650072
:100BC000182F2FEF30E742E0215030404040E1F74E
:100BD00000C00000813309F477C1823309F477C182
:100BE000833309F477C1843341F4023009F475C1C9
:100BF000013029F4D02E02E05FC18F3F91F00E94B6
:100C00006F09C7010E9460098FEF94E3ACE0815047
:100C10009040A040E1F700C000001153143008F4E8
:100C200048C18091A002882309F4B3CF802F0D2DF5
:100C3000D82E42C10E946F098BE292E00E946009A7
:100C400082E061E00E9473098CE392E00E946009F7
:100C50008D2D0E946500182F2FEF30E742E02150C4
:100C600030404040E1F700C00000813309F438C152
:100C7000823309F437C1833309F436C1843309F46C
:100C800035C18F3F91F00E946F09C7010E94600932
:100C90008FEF94E3ACE081509040A040E1F700C0BA
:100CA00000001153143008F407C18091A00288237A
:100CB00009F202C10E946F098DE492E00E9460096E
:100CC00082E061E00E94730980E692E00E94600980
:100CD0008D2D0E946500182F2FEF30E742E0215044
:100CE00030404040E1F700C00000813309F400C10A
:100CF000823309F4FFC0803309F4FEC08F3F91F0C6
:100D00000E946F09C7010E9460098FEF94E3ACE075
:100D100081509040A040E1F700C000001053133014
:100D200008F4CAC08091A002882321F2C5C083E0E4
:100D30006D2D0E94860001E0BFC084E06D2D0E94F1
:100D4000860001E0B9C085E06D2D0E94860001E0BB
:100D5000B3C086E06D2D0E94860092E0D91609F09E
:100D6000A0C001E0A9C087E06D2D0E94860002E0CE
:100D7000A3C089E06D2D0E94860008E09DC00E94FE
:100D80006F0981E792E00E9460098FED0E943D09A2
:100D900083E40E943D0981E06BE00E9473092FEF1C
:100DA00031EE44E0215030404040E1F700C0000007
:100DB0008D2D0E9465002FE73AE146E0215030403A
:100DC0004040E1F700C000009091A002913009F48A
:100DD0006AC0182F10531A3078F00E946F09C701AB
:100DE0000E9460098FEF94E3ACE081509040A040F6
:100DF000E1F700C000004EC00E943D098D2D0E9409
:100E000065002FE73AE146E0215030404040E1F7ED
:100E100000C000009091A002913009F446C0082F54
:100E200000530A3078F00E946F09C7010E946009E0
:100E30008FEF94E3ACE081509040A040E1F700C018
:100E4000000028C00E943D09110F812F880F880FD4
:100E5000180F100F80E40E94120D2FEF31EE44E0C6
:100E6000215030404040E1F700C00000812F0E9437
:100E7000120D0E946F098FE792E00E9460098FEFC8
:100E800094E3ACE081509040A040E1F700C0000046
:100E9000112369F48091A002882309F470CF08E03F
:100EA0000BC002E009C008E007C008E005C008E088
:100EB00003C0802F0D2DD82E8091A002813009F41F
:100EC00010CC2ACE1FEF39CCD02E03E0F5CFD02E98
:100ED00004E0F2CFD02E05E0EFCFD02E06E0ECCF2D
:100EE00006E0EACF07E0E8CF08E0E6CF01E0E4CF94
:100EF0000AE0E2CF09E0E0CF02E0DECF1F920F92DE
:100F00000FB60F9211248F939F938091A10290911D
:100F1000A20201969093A2028093A1029F918F91C9
:100F20000F900FBE0F901F9018951F93CF93DF93D4
:100F3000182FEB010E94840C80EA0E94AB0C812FD9
:100F40000E94D80C0E94970C80EA0E94C10CCE012E
:100F50000E94EA0C0E94FE0CDF91CF911F91089530
:100F6000CF93DF93D82FC62F0E94840C80EA0E9473
:100F7000AB0C8D2F0E94D80C8C2F0E94D80C0E9495
:100F8000FE0C83EC99E00197F1F700C00000DF91BF
:100F9000CF910895FF920F931F93CF93DF93F82E75
:100FA000042F4423C1F0C62FD72F10E00E94840CD9
:100FB00080EA0E94AB0C812F8F0D0E94D80C899182
:100FC0000E94D80C83EC99E00197F1F700C0000073
:100FD0001F5F101759F70E94FE0CDF91CF911F91F0
:100FE0000F91FF900895FF920F931F93CF93DF937C
:100FF000F82E062F6623F1F0C42FD52F10E00E94A3
:10100000840C80EA0E94AB0C812F8F0D0E94D80CBB
:101010000E94970C80EA0E94C10C899190E00E9486
:10102000EA0C83EC99E00197F1F700C000001F5F24
:10103000101729F70E94FE0CDF91CF911F910F919D
:10104000FF90089581E460E041E00E94E00981E4BE
:1010500061E041E00E94E00981E462E041E00E9439
:10106000E00981E463E041E00E94E00981E464E09A
:1010700040E00E94E00981E465E040E00E94E00970
:1010800081E466E040E00E94E00981E467E040E03E
:101090000E94E00981E464E041E00E94CE0B81E41B
:1010A00065E041E00E94CE0B81E466E041E00E94F1
:1010B000CE0B81E467E041E00E94CE0B0895EF92F1
:1010C000FF920F931F93CF93DF93CDB7DEB7609757
:1010D0000FB6F894DEBF0FBECDBFDE011196E0E97A
:1010E000F2E080E101900D928150E1F7EE24FF24BF
:1010F0000FEF81E460E041E00E94630A81E461E077
:1011000041E00E94630A81E462E041E00E94630AD8
:1011100081E463E041E00E94630A8FE39CE9019768
:10112000F1F700C0000081E46E2D40E00E94630AE8
:1011300010E0612F6C5F81E40E94E60A882379F455
:10114000F701EE0FFF1FEE0FFF1FE10FF11D81E012
:1011500090E08C0F9D1FE80FF91F008103C01F5FF7
:10116000143039F70894E11CF11C94E0E916F104FD
:1011700009F0BFCF802F60960FB6F894DEBF0FBE88
:10118000CDBFDF91CF911F910F91FF90EF90089508
:1011900082E460E041E00E94630A8FE99FE00197EA
:1011A000F1F700C0000082E460E040E00E94630AC2
:1011B0008FE99FE00197F1F700C000000895CF93F9
:1011C000C82F84E40E94B20B6C2F607F84E40E94DD
:1011D000920B82E461E040E00E94630A0E94C8082A
:1011E00084E40E94B20B6C2F6295607F84E40E94BD
:1011F000920B82E461E040E00E94630A0E94C8080A
:10120000CF91089584E464E041E00E94E00984E421
:1012100065E041E00E94E00984E466E041E00E946C
:10122000E00984E467E041E00E94E00982E460E0D4
:1012300041E00E94E00982E462E041E00E94E009AE
:1012400082E461E041E00E94E00982E462E040E083
:101250000E94630A82E00E94DF0888E20E94DF08A1
:1012600081E00E94DF088EE00E94DF088FE19EE4AB
:101270000197F1F700C000000895CF93C82F84E4D0
:101280000E94B20B6C2F607F84E40E94920B82E478
:1012900061E041E00E94630A0E94C80884E40E9461
:1012A000B20B6C2F6295607F84E40E94920B82E403
:1012B00061E041E00E94630A0E94C808CF9108954E
:1012C000CF93DF93EC018881882331F021960E942F
:1012D0003D0989918823D9F7DF91CF91089581E065
:1012E0000E94DF080895813019F4862F815806C0C6
:1012F000823019F4862F815401C080E80E94DF08F3
:101300000895EF92FF920F931F93CF93DF93CDB782
:10131000DEB764970FB6F894DEBF0FBECDBFFE01F7
:10132000319694E1DF011D929A95E9F7882349F1FE
:10133000FE01319620E030E04AE0642F0E94120F57
:101340009083118232962F5F3F4F8823B1F7890136
:1013500001501040B2F07901EE0CFF1CE1E0F0E02A
:10136000EC0FFD1FEE0EFF1ED7019E918E917D01A9
:10137000805D0E943D0901501040BFEF0F3F1B07E9
:1013800099F764960FB6F894DEBF0FBECDBFDF911C
:10139000CF911F910F91FF90EF90089541E00E942F
:1013A000E009089541E00E94630A089540E00E9428
:1013B000630A08950E943E0B08950E94E60A08956C
:1013C000823451F1833420F4813409F07BC007C0AA
:1013D000833409F43EC0843409F074C057C04130EE
:1013E00069F42AB381E090E0AC0102C0440F551FBC
:1013F0006A95E2F7BA01622B6ABB08952AB381E0CD
:1014000090E0AC0102C0440F551F6A95E2F7BA01A3
:10141000609562236ABB0895413069F427B381E087
:1014200090E0AC0102C0440F551F6A95E2F7BA0183
:10143000622B67BB089527B381E090E0AC0102C046
:10144000440F551F6A95E2F7BA016095622367BBA6
:101450000895413069F424B381E090E0AC0102C00A
:10146000440F551F6A95E2F7BA01622B64BB0895D9
:1014700024B381E090E0AC0102C0440F551F6A958F
:10148000E2F7BA016095622364BB0895413069F4C4
:1014900021B381E090E0AC0102C0440F551F6A9572
:1014A000E2F7BA01622B61BB089521B381E090E0BD
:1014B000AC0102C0440F551F6A95E2F7BA0160956E
:1014C000622361BB0895823451F1833420F4813466
:1014D00009F07BC007C0833409F43EC0843409F0AE
:1014E00074C057C0413069F42BB381E090E0AC0187
:1014F00002C0440F551F6A95E2F7BA01622B6BBB1D
:1015000008952BB381E090E0AC0102C0440F551F59
:101510006A95E2F7BA01609562236BBB089541308A
:1015200069F428B381E090E0AC0102C0440F551F7C
:101530006A95E2F7BA01622B68BB089528B381E08F
:1015400090E0AC0102C0440F551F6A95E2F7BA0162
:101550006095622368BB0895413069F425B381E04A
:1015600090E0AC0102C0440F551F6A95E2F7BA0142
:10157000622B65BB089525B381E090E0AC0102C009
:10158000440F551F6A95E2F7BA016095622365BB67
:101590000895413069F422B381E090E0AC0102C0CB
:1015A000440F551F6A95E2F7BA01622B62BB08959A
:1015B00022B381E090E0AC0102C0440F551F6A9550
:1015C000E2F7BA016095622362BB08958234F1F0BC
:1015D000833420F4813409F04FC006C0833441F1D4
:1015E000843409F049C036C029B381E090E0062E6A
:1015F00002C0880F991F0A94E2F730E082239323F8
:1016000002C0959587956A95E2F7089526B381E023
:1016100090E0062E02C0880F991F0A94E2F730E08E
:101620008223932302C0959587956A95E2F70895E2
:1016300023B381E090E0062E02C0880F991F0A9420
:10164000E2F730E08223932302C0959587956A954F
:10165000E2F7089520B381E090E0062E02C0880FE3
:10166000991F0A94E2F730E08223932302C09595F4
:1016700087956A95E2F7089580E008958234B9F07D
:10168000833418F48134C9F505C08334E9F0843417
:10169000A1F527C02BB381E090E0AC0102C0440F5C
:1016A000551F6A95E2F7BA0162276BBB089528B30C
:1016B00081E090E0AC0102C0440F551F6A95E2F74B
:1016C000BA01622768BB089525B381E090E0AC01C0
:1016D00002C0440F551F6A95E2F7BA01622765BB45
:1016E000089522B381E090E0AC0102C0440F551F81
:1016F0006A95E2F7BA01622762BB0895823461F00D
:10170000833418F4813469F405C0833439F08434A7
:1017100041F406C06BBB089568BB089565BB08958E
:1017200062BB0895823479F0833418F48134C9F4AB
:1017300005C0833469F08434A1F40FC08BB3607F9B
:10174000682B6BBB089588B3607F682B68BB0895D6
:1017500085B3607F682B65BB089582B3607F682B7B
:1017600062BB0895823471F0833418F48134A9F493
:1017700005C0833459F0843481F40CC08BB38F706E
:101780008BBB089588B38F7088BB089585B38F7025
:1017900085BB089582B38F7082BB0895823491F126
:1017A000833420F4813409F09BC007C0833409F4EA
:1017B0004EC0843409F094C06FC04130A9F480B7A2
:1017C0008B7F80BF2AB381E090E0AC0102C0440F60
:1017D000551F6A95E2F7BA01842F809582238ABB50
:1017E0008BB3682B6BBB08952BB381E090E0AC0109
:1017F00002C0440F551F6A95E2F7BA016095622353
:101800006BBB08954130A9F480B78B7F80BF27B3AD
:1018100081E090E0AC0102C0440F551F6A95E2F7E9
:10182000BA01842F8095822387BB88B3682B68BB5D
:10183000089528B381E090E0AC0102C0440F551F29
:101840006A95E2F7BA016095622368BB089541305A
:10185000A9F480B78B7F80BF24B381E090E0AC0116
:1018600002C0440F551F6A95E2F7BA01842F809594
:10187000822384BB85B3682B65BB089525B381E0C3
:1018800090E0AC0102C0440F551F6A95E2F7BA011F
:101890006095622365BB08954130A9F480B78B7FC2
:1018A00080BF21B381E090E0AC0102C0440F551F1E
:1018B0006A95E2F7BA01842F8095822381BB82B3B7
:1018C000682B62BB089522B381E090E0AC0102C0B6
:1018D000440F551F6A95E2F7BA016095622362BB17
:1018E000089582E080B90898099884E682B986B79D
:1018F000846086BF089586B7806486BF88E282B917
:1019000086B7846086BF089586B7806286BF86B733
:10191000806886BF86B7846086BF06B607FEFDCFA7
:1019200091B1987F81E0983009F480E0089586B7FE
:10193000806286BF86B7806886BF86B7846086BFB0
:1019400006B607FEFDCF81B1887F803111F480E0BB
:10195000089582E0089583B986B78F7D86BF189871
:1019600086B7806886BF86B7846086BF06B607FEE6
:10197000FDCF81B1887F803211F080E0089583E04F
:101980000895816083B986B78F7D86BF189A86B720
:10199000806886BF86B7846086BF06B607FEFDCF27
:1019A00081B1887F883311F080E0089584E0089544
:1019B00083B986B7806886BF86B7846086BF06B65F
:1019C00007FEFDCF81B1887F803311F080E008955C
:1019D00085E00895FC0186B7846086BF86B780687D
:1019E00086BF06B607FEFDCF81B1887F883511F02E
:1019F00080E001C086E093B19083089586B780614E
:101A000086BF86B7806886BF86B7846086BF089524
:101A100087B3806B87BB8DB181658DB90895BE9A00
:101A20006E9A08958FB9779BFECF8FB108958EE49B
:101A30008CBF83B7886083BF83B78F7B83BF83B737
:101A4000816083BF83B78D7F83BF83B7846083BF8B
:101A5000789489B7826089BF089583B78E7F83BFEA
:101A600083B78D7F83BF83B78B7F83BF089580E863
:101A70008CBF83B7806483BF83B7886083BF78944B
:101A800083B7806283BF89B7816089BF83B7816074
:101A900083BF83B78D7F83BF83B7846083BF08957F
:101AA00020E030E048EC52E40E94CA0D20E030E033
:101AB00040E853E40E94AF0E0E94320E6CBF0895BE
:101AC000579A559A529886E880BD83E389B9549A0B
:101AD000539A089555980895559A08958CB9089584
:101AE0008CB108951F920F920FB60F9211242F936D
:101AF0003F934F935F936F937F938F939F93AF9396
:101B0000BF93EF93FF93E091A602F091A70209958E
:101B1000FF91EF91BF91AF919F918F917F916F91C5
:101B20005F914F913F912F910F900FBE0F901F909B
:101B300018951F920F920FB60F9211242F933F9377
:101B40004F935F936F937F938F939F93AF93BF93C5
:101B5000EF93FF93E091A802F091A9020995FF91FC
:101B6000EF91BF91AF919F918F917F916F915F9115
:101B70004F913F912F910F900FBE0F901F9018958E
:101B80009093A9028093A80208959093A70280934E
:101B9000A60208950CD0A9C0A1D040F098D030F092
:101BA00021F45F3F19F08AC05111D3C08DC0AED06F
:101BB00098F39923C9F35523B1F3951B550BBB2714
:101BC000AA2762177307840738F09F5F5F4F220FC1
:101BD000331F441FAA1FA9F333D00E2E3AF0E0E8BA
:101BE00030D091505040E695001CCAF729D0FE2F06
:101BF00027D0660F771F881FBB1F26173707480798
:101C0000AB07B0E809F0BB0B802DBF01FF2793584D
:101C10005F4F2AF09E3F510568F050C09AC05F3F69
:101C2000ECF3983EDCF3869577956795B795F79535
:101C30009F5FC9F7880F911D9695879597F908952D
:101C4000E1E0660F771F881FBB1F621773078407C9
:101C5000BA0720F0621B730B840BBA0BEE1F88F7D8
:101C6000E09508955BD088F09F5790F0B92F9927A1
:101C7000B751A0F0D1F0660F771F881F991F1AF097
:101C8000BA95C9F712C0B13081F062D0B1E00895C1
:101C90005FC0672F782F8827B85F39F0B93FCCF342
:101CA000869577956795B395D9F73EF4909580958D
:101CB000709561957F4F8F4F9F4F089597F99F675C
:101CC00080E870E060E008959FEF80EC08950024C4
:101CD0000A941616170618060906089500240A9491
:101CE00012161306140605060895092E0394000C17
:101CF00011F4882352F0BB0F40F4BF2B11F460FFA6
:101D000004C06F5F7F4F8F4F9F4F089557FD9058CE
:101D1000440F551F59F05F3F71F04795880F97FBAF
:101D2000991F61F09F3F79F0879508951216130669
:101D30001406551FF2CF4695F1DF08C01616170698
:101D40001806991FF1CF86957105610508940895CD
:101D5000E894BB2766277727CB0197F908950BD026
:101D6000C4CFB5DF28F0BADF18F0952309F0A6CF6D
:101D7000ABCF1124EECFCADFA0F3959FD1F3950F1F
:101D800050E0551F629FF001729FBB27F00DB11DFF
:101D9000639FAA27F00DB11DAA1F649F6627B00D8F
:101DA000A11D661F829F2227B00DA11D621F739F78
:101DB000B00DA11D621F839FA00D611D221F749F86
:101DC0003327A00D611D231F849F600D211D822FCD
:101DD000762F6A2F11249F5750408AF0E1F0882314
:101DE0004AF0EE0FFF1FBB1F661F771F881F915021
:101DF0005040A9F79E3F510570F060CFAACF5F3FDA
:101E0000ECF3983EDCF3869577956795B795F79553
:101E1000E7959F5FC1F7FE2B880F911D96958795DB
:101E200097F90895991B79E004C0991F961708F057
:101E3000961B881F7A95C9F780950895F894FFCF6F
:101E4000526F6F6D3120533A00526F6F6D322053D5
:101E50003A00545620533A0046616E20533A0047E8
:101E6000617261676520533A0041697220436F6E69
:101E7000642E20533A004F4E004F50454E00434CC5
:101E80004F534544004F464600312D4F6E20322DB2
:101E90004F666620302D5245540057726F6E672092
:101EA000696E70757400504C45415345205245533E
:101EB0004554200054484520504F5745520057651F
:101EC0006C636F6D6520486F6D6520004C6F6769AE
:101ED0006E20666F720066697273742074696D6536
:101EE000005365742046616D696C7920706173736D
:101EF0000046616D696C7920706173733A005061BE
:101F0000737320536176656400536574204775656B
:101F1000737420506173730047756573742050614A
:101F200073733A0053657373696F6E2054696D65FE
:101F30006F7574004C6F67696E20626C6F636B65C0
:101F4000640077616974007365636F6E6473005336
:101F5000656C656374206D6F6465203A00303A46A5
:101F6000616D696C7920313A4775657374005772F9
:101F70006F6E6720696E7075742E0046616D696CB6
:101F800079206D6F646500456E74657220506173D1
:101F9000733A0052696768742070617373005772F6
:101FA0006F6E672050617373005472696573206CA3
:101FB0006566743A004775657374206D6F646500DB
:101FC000456E74657220706173733A0057726F6E5C
:101FD00067207061737300313A526F6F6D31203238
:101FE0003A526F6F6D3200333A545620343A4D6F87
:101FF00072652000333A545620343A46616E0057D9
:10200000726F6E6720696E70757400313A46616E4A
:10201000202020323A47617261676500333A416996
:102020007220436F6E642E343A52455400313A5355
:1020300065742074656D70657261747572652000D9
:10204000323A436F6E74726F6C2020303A524554AE
:10205000005365742074656D702E3A5F5F200054E4
:10206000656D70657261747572652053656E74007C
:102070003738392F3435362A3132332D41303D2B24
:00000001FF
